:0E00000002018F2A414C455349532A857E8CBC
:10000E00857F8A0000057D324331393837024E0430
:0E001E00204D465220C0D0C0E0D2D410980B26
:10002C00109925855CA0D0E0D0D032D2D375A081B8
:10003C00E599F309E8B519E8C265757B0B757C6623
:0E004C00855CA0D0E0D0D03275A080C2D3E891
:10005A00B5110AC264855CA0D0E0D0D032E2F5992D
:10006A0008855CA0D0E0D0D03275A0847800748670
:0F007A00F2087400F208E4F208B8CAFB78CAF280
:1000890078CBF278CCF278CD743CF278CE7486F2E3
:0F00990078CF74FFF278D074FEF278D174C4F28D
:0F00A80078D27478F2741878D9F2740478DAF296
:1000B70078D5E4F2908600126BB575A0857800E4D8
:0E00C700F208B8CAFB78CAF278CBF278CCF215
:1000D50075A08378007430F208744BF2087470F2DE
:0F00E5009084D87478F09082C8E4F09082C9F0CB
:1000F4009082CAF075A08278CB90015D7900E99373
:0F010400F20908B911F89082DC7400F09082E6DD
:100113007401F09082DDE4F09082DEF0D277D2A910
:0F012300C2AA9082DF7401F09082E0F09082E136
:100132007402F090373D939084D6F09082E2E4F01E
:0F0142009082E3F09082E47402F09082E5E4F0A2
:100151009085D57464F09082F4E4F0222223262A5B
:0F0161002C2E274344302D293F3331413E743833
:10017000900006F01207F17438F01207F17406F0DF
:0F0180001207EA740EF01207EA7401F00207F199
:0F018F0075D00075812F75892175885575B80257
:0F019E00759870758DFF758BFF780F900000F0CE
:0F01AD00900002E4F0F0F074F8F0E8F018791424
:0F01BC00D9FEB8FFE87802E4F608D9FEB880F95A
:1001CB0012016E12016E780075A00090000874FE8B
:0F01DB00F01207E3E2B4FF3574FDF01207E3E220
:1001EA00B4FE2B74FBF01207E3E2B4FE2174F7F0BD
:0E01FA001207E3E2B4FB1774EFF01207E3E222
:10020800B4FF0D74DFF01207E3E2B4FF0302023615
:1002180074FEF01207E3E2B4B70302529775A082A6
:1002280078FEE208B42707E2B4B50302024074B5C9
:10023800F2187427F2120073121BC875A08478DBB9
:0F02480074FE7906F208D9FC748CF274FF08F288
:10025700D2D478007900D2D378007900C2D3C2D43F
:0F02670075A082E47800F278F9F278FCF278C79B
:100276007480F2757B0B757C66C264C2659082DC05
:10028600E0A2E0926E9082E6E05401F0A2E0927A5B
:0E0296009083B27806E4F00582D8FB906B836B
:1002A40075A08278E7E493F208906B8F7904E49365
:1002B400F208A3D9F978CA75A084E278E3B4640B90
:0F02C400D2737401F21242780202D8F5F0E4F21C
:0E02D300E5F01218F09082E3E0A2E0B3926032
:1002E100121AC59084E274FFF0900004F0906B55EF
:0F02F100122E839082C674FFF09082F774FFF094
:100300009082F8E4F0C28B75A8929082DEE06011D2
:0E031000C277B4020EC28BC2A9D2AA757D00BC
:10031E00020328D277757D00D2A99082C674FFF0B1
:10032E009082F774FFF01242A39084E2E04406F04C
:10033E00900004F01207057846C0001203BDD000ED
:0E034E00D8F7122A49207F06301A3130352E9A
:0F035C0020732B9084E6E0F5F0A3E045F0700BE2
:0F036B00122E801242A3C27F02038AC269C2050A
:10037A00C2AAC2A9757D00107F030260940260AE12
:0F038A00E57D60149082DEE0B4020D9082E0E029
:0F0399006007C0E0120420D0E012372012443E6B
:1003A800300005C269125B4B301105C26912658DB8
:1003B8001206998085C27B9082DEE07003757D000D
:0E03C800D2D4D2D3120B66C2D3C2D4124B07CA
:1003D600307616C2699084E2E054FDF0900004F095
:0F03E60015811581158102138A120B552075217F
:1003F500301869C218303519757D00D26F9084E2C6
:0E040500E054FDF0900004F015811581158182
:0F041300026F6F9082DEE0147003757D00C26986
:0F042200D26F9084E2E054FD304A26207323F914
:0F0431009084E6E0F5F0A3E09084E245F0700ED1
:0F044000122E80C26F1215901242A3020461E9BE
:0F044F0054FBD263F0900004F0158115811581E4
:0F045E00021334301949C2193073229085D4E04B
:0F046D00B4640040191242789085D4E0B4FF02C5
:0F047C00809812172950089085D3E004F080E78C
:0E048B009082DEE0147003757D00C269D26FAE
:0F0499009084E2E054FDF0900004F0158115818D
:1004A800158102138822200A189082F7E0B4FF030E
:0E04B8000204ECF5F074FFF09085CCE5F0F056
:0E04C600023EC3122F24601B75F001122F6935
:0F04D40075F001122F699085CCE0F5F0122F69B9
:0E04E30075F0F7122F69023EC3300305C2699F
:0E04F10012378030040EC269304A06122D54B4
:0E04FF00020505123A26301005C26912383D7A
:10050D00300205C26912648A300105C26912679111
:10051D00122B914041301C15C269755C8475A08405
:10052D0078CAE204B46400402DE4020563301B1464
:0F053D00C269755C8475A08478CAE214B4FF1794
:0F054C0074630205639082C6E0B4FF0122F5F0EC
:0F055B0074FFF0E5F0020584F574122F24601888
:0F056A0075F001122F6975F000122F698574F07A
:0E057900122F6975F0F7122F69E574755C8416
:0F05870075A08478CBF29082E3E0A2E0B392609B
:0E05960012184C121E3E222005189082C6E05C
:1005A400B4FF030205DBF5F074FFF09084CCE5F0B2
:0F05B400F0023F50122F24601B75F001122F69C7
:0F05C30075F000122F699084CCE0F5F0122F69CB
:0E05D20075F0F7122F69023F50300905C2691B
:1005E000124098300805C269123FFD301005C269FB
:0E05F00012383D300105C26912416330040823
:1005FE00304A05C269122D54122B914054301C25DD
:10060E009085D4E0B4FF03020633C2699085D3E02F
:0F061E0004F0124278121E5A9085D4E0B4FF0304
:10062D00020633121729301B179085D3E060111481
:10063D00F0C269124278121E5A9085D4E012172921
:0F064D009082F7E0B4FF0122F5F074FFF0E5F0C2
:10065C00020680F574122F24601875F001122F69B0
:0F066C0075F001122F698574F0122F6975F0F780
:0E067B00122F69E574755C8575A08578CBF249
:100689009082E3E0A2E0B39260123DEE121E5A227C
:0E069900303568302808C2289027C90206E6CE
:1006A700302908C2299029090206E6302A08C22AF9
:0E06B7009029490206E6302B08C22B906B9565
:0E06C5000206E6302F08C22F9029690206E6D1
:1006D300300408C204906B750206E6302017C2206E
:0F06E3009029E9754E00754D00754C00754B0060
:0F06F200122E830242A3301D09905412121E26AD
:0F0701000253A7227800755C0075A000900008D5
:100710007480F01207E3E2B4FF4BF0C26AC262E4F5
:100720009083B2F00582F00582F00582F00582F038
:0F0730000582F0F52BF52AF529F528F527F52692
:0F073F007480F551E4F525F524F523F522F52115
:0F074E00F5207800E2F4F9A26C92F0A2E0926C30
:0F075D0065F059A2E0927522D26274FFF07AFE25
:10076C007B067C00792674BE000000000090000817
:10077C00F01207E3E2F4F774FFF09007FBE709933C
:0F078C002CFCEA23FA54BFBC03004005D26AE4F8
:10079B0080A7DBDAC26A9083B2792078267B06E6E3
:0F07AB00F5F0E065F0C5F0F055F0F705820908AC
:0F07BA00DBEE204C08204B1375518080891551C0
:1007C900E551701375510AD21C0207501551E551B4
:1007D900700575510AD21B02075000000000000085
:0E07E90022741BD5E0FD002275F0271207EAEE
:1007F700D5F0FA22000101020102020201020202FF
:0F080700020202020102020202020202020202C5
:0F081600020202020201020202020202020202B6
:0F082500020202020202020202020202020202A6
:0F08340002020202020202010202020202020298
:0F08430002020202020202020202020202020288
:0F08520002020202020202020202020202020279
:0F0861000202020202020202020202020202026A
:0F0870000202020202020202020202010202025C
:0F087F000202020202020202020202020202024C
:0F088E000202020202020202020202020202023D
:0F089D000202020202020202020202020202022E
:0F08AC000202020202020202020202020202021F
:0F08BB0002020202020202020202020202020210
:0F08CA0002020202020202020202020202020201
:0F08D900020202020202020202020202020202F2
:0F08E800020202020202020202020202020202E3
:1008F70002020202055B206605AA66020907AA76BC
:10090700E55BB50208755B00B266120A6B755C821F
:1009170075A0827800E2700122FFE4F22040090806
:10092700E2FA120955DFF822E56C700122AE6C0875
:10093700E2F5F053F00F856A82856B83E020E708C4
:10094700540FB5F0037480F0A3DEF1DFE022E56C0D
:10095700701B056C1209E1856882856983A3EAF03B
:0E09670085826885836985826A85836B22FE9E
:10097500856A82856B838AF053F00F7402B5F003A4
:0E09850002099304B5F00302099304B5F02AA9
:0F09930075F002E020E718540FB5F003EAF022E8
:1009A20005F0B5F003EAF02205F0B5F003EAF02213
:0F09B200A3DEDE056C1209E10209D1E020E7089F
:1009C100540FB5F003EAF022A3DEF1056C1209E140
:1009D100856882856983A3EAF085826885836922B7
:1009E1009084E6E014F0B4FF07A3E014F020E701DF
:0F09F1002215811581158115819084E57402F01E
:100A0000D219902A29022E83C263306106120A6924
:100A10002061FA120A693061FA856282856383E097
:100A2000A3B4FFFB755C8475A08478CAE225E0F866
:100A3000E2FA08E2F9AB83E582C39989828A83F9F5
:100A4000EB9AFAE0FBE9F0A3E0FCEAF0E9C39BF9DA
:100A5000EA9CFA78CDE229F208E23AF278D1E2C3D0
:100A600099F208E29AF2021967AA66756C00E567C6
:100A7000601BC39A600A4008F567AB02120B26227E
:100A8000AB67120B26EAC39567FA75670085628229
:0E0A9000856383E0A385826285836310E71D82
:0F0A9E00856882856983A3AE6CBE000685826A77
:0E0AAD0085836BF0858268858369056C80D235
:100ABB00B47F087AFF1209D1020AEE60C5B50203B2
:0E0ACB00020AE040109AF567BA000122AB0261
:100AD900756C00120B2622756C00CAC39AAB02FA18
:0F0AE900120B26809F756700756C007A00A86855
:100AF800A969106111D261856468856569855F623D
:0F0B0800856063020B1A855F688560698564628A
:0F0B17008565638568828569837480F0020A8D25
:0F0B2600856882856983E020E70CEBD2E7A3F0B6
:100B3500858268858369222B0430E70314F022043B
:100B4500D2E7FB74FEF0A3EBF0858268858369220A
:0F0B5500755C8275A082E47800F2C27622D07BB4
:100B6400D07C755C8175A081E8B5190122E208FA90
:100B740020E708857B83857C82E4735470C4F5F098
:100B84002325F0900B8B73020BA3020BB7020C29E5
:0F0B9400020C3D020C51020C8A020C99020D0A50
:0F0BA300C2658A7A120B628A79120B62306EF584
:0E0BB200120CAD80F0C2658A7A120B628A794D
:0F0BC000120B62306E03120CAD755C8275A08251
:0F0BCF00C2D478C9E2604F78C8E2600914AA7AEC
:100BDE00530A0FB50A41E51A603D122CE478CBE2B8
:100BEE00B5790B7A80124A27755C82855CA07A00F3
:100BFE0078CCE2B5791CE51A4AFB7900E32401F3BF
:0F0C0E0029F9EBF3C008C05C124A27D05CD0086C
:100C1D00855CA00A08BA10DBD2D48092C2658A7AAC
:100C2D00120B628A79120B62306EF5120CAD80F0E8
:0F0C3D00C2658A7A120B628A79120B62306EF5E9
:0F0C4C00120CAD80F0C2658A7A120B62306E0313
:0F0C5B00120CCF306F032073F19082DDE060EB5D
:0F0C6A009082C8E0600714537A0FB57ADEEAC3B0
:0F0C790094645001EA9082C63073039082F7F0C2
:0F0C880080CBC2658A7A120B62306EFA120CCFE3
:0E0C970080F5C2658A7A120B628A79120B62AE
:100CA500306EF5120CAD80F0C2D3755C8075A080F6
:100CB500C2AC206404D299D264E57AF309E579F3EC
:0F0CC50009E51AF309D2ACD2D322C2D3755C80F1
:100CD40075A080C2AC206404D299D264E57AF30989
:0E0CE400E51AF309D2ACD2D322306E19C2D376
:0F0CF200755C8075A080C2AC206404D299D26476
:0F0D0100E51AF309D2ACD2D322EA540FF5F0234E
:0F0D100025F0900D1673020D4E020EF6020E2204
:0F0D1F00020E4D020EF6020EF6020EF6020E6FD7
:0F0D2E00020E77020B66020E86020EB3020EDD76
:0F0D3D00020B66020B66020B66120B62120CEDC4
:100D4C0080F8307AF5D265120CED120B62120CEDB4
:0F0D5C00BA00E7120B62120CEDBA00DE120B6246
:0F0D6B00120CEDBA0ED5120B62120CEDBA01CCC0
:100D7A00120B62BA0003020D89120CED2062BDEA61
:0E0D8A0054F070B8EA232A900D9573020DC53F
:0F0D9800020F01020F26020F36020F60020FB486
:0F0DA70002121802124402125F0212D902131D27
:0F0DB600020D46020D46020D46020D46020D4685
:0E0DC500902049C2D3C2D4121E26D2D3D2D45B
:100DD300908200755C8175A081E8B5190280FAE202
:100DE3000820E738F5F07C07E8B5190280FAE20835
:100DF30020E72923FA7408C39CFDEAC333C5F03303
:0F0E0300C5F0DDF7C5F0F0A3DC0280CDAD1CE437
:100E1200C5F0C333C5F033C5F0DDF780CC02018FD6
:0F0E2200C2658A7A120B628A79120B62306E03F4
:100E3100120CAD755C8275A082C2D478F97401F28E
:100E410008E579F208E51AF2D2D480D9C2658A7A26
:0F0E5100120B62306E03120CCF755C8275A0829B
:0F0E6000C2D478FC7401F208E51AF2D2D480E211
:100E6F00C265120CED020EF6307709307B06E57D78
:100E7F002404F57D020B66206F6A2077119082DEC5
:100E8F00E0B401609082E0E0B40159020EA9C2A95A
:0F0E9F009082F8E06004E4F0D24AD218757D002A
:0F0EAE00D27B020B66206F3D2077189082DEE02A
:0F0EBD00B401339082E0E0B4012C757D00D27B4C
:0E0ECC00D276020B66757D00D27BD276C2A96B
:100EDA00020B66306F1320770E9082DEE0B40109B0
:0E0EEA009082E0E0B40102D219020B66C265EC
:0F0EF800757B0B757C66020B66120B62120CED9C
:0E0F0700BA000E120B62120CEDEA9082C6F0D8
:0E0F1500020D46120B62120CEDEA9082F7F00C
:100F2300020D46120B62120CEDEA54019082F8F0A6
:0E0F3300020D46120B62120CED8A79120B624F
:100F4100120CED206F169084DAE579F09084D5EAE1
:0F0F5100F0C2D3C2D41237EAD2D3D2D4020D46A3
:0E0F6000120B62120CED8A79120B62120CED6C
:100F6E00206F4020733D9083A2E552F0A3E54FF031
:100F7E00A3E550F0E57913F5F0540FF550EA92E73A
:0E0F8E00F54F75520030F5020552C2D3C2D4A1
:0F0F9C00123BE4D2D3D2D49083A2E0F552A3E06B
:0F0FAB00F54FA3E0F550020D46120B62120CED4C
:100FBA008A79120B62120CED8A7A120B62120CED0C
:100FCA009082F5E57913F579E57A92E7F57AE5798C
:0E0FDA0013E57A13F57AF0A3EA92E7F579F0C1
:100FE800120B62120CED206FC09084D1C3E095798A
:100FF800A3E0600514957A5011902A29C2D3C2D46F
:10100800121E26D2D3D2D4021154BA116330739966
:101018009085CAE07582CCF07582CB74FFF0C2D39C
:10102800C2D4123DEED2D3D2D49083A27400F0A3DE
:101038007485F090850012115770199083A2E54FBE
:0E104800F09085CCE0F54FC2D3C2D4125F5CAD
:101056009083A2E0F54FC2D3C2D41239D59085CC85
:0F106600E07582CBF0123DEE1242A3D2D3D2D46A
:0E1075000211542073FA9084CAE07582CCF008
:101083007582CB7464F0C2D3C2D49082E3E0A2E051
:1010930092687401F012184C9082E3E4A26892E023
:0F10A300F0D2D3D2D49083A274C8F0A37484F097
:0F10B2009084C812115770709083A2E552F0A37A
:0F10C100E54FF09084CCE0F54FE579F552C2D3BE
:1010D000C2D47037125CFC3069469084CCE025E0C5
:0F10E000F582E0603BF55C0582E02404F85002E5
:0F10EF00055C855CA0906BC57930E493F2A30893
:1010FE00B80005055C855CA0D9F10211209082F440
:10110E00E0600F9083A4C575F0125E969083A4E004
:10111E00F5759083A2E0F552A3E0F54FC2D3C2D489
:0E112E009082E3E0A2E092687401F01239E8CA
:0F113C009084CCE07582CBF012184C9082E3E4E3
:0F114B00A26892E0F0D2D3D2D4020D46E0F5F0C4
:0F115A000582E0F58285F083E0FEA3E0FB1582BD
:0E11690085F083AF798A79755C8175A081E885
:10117700B5190280FAE20830E703021215F5F0FA12
:0F118700120CED755C8175A0817C07E8B519022B
:0E11960080FAE20830E703021215FA120CED9F
:1011A400755C8175A08123FA7408C39CFDEAC3337E
:1011B400C5F033C5F0DDF7C5F0F0A3DF06D57A033B
:1011C4000211DBDC0280ABAD1CE4C5F0C333C5F017
:0F11D40033C5F0DDF780B79083A2E0F5F0A3E01C
:1011E300F58385F082E0F5F00582E0F58285F083F2
:1011F300E0C39EF5F0A3E09BFB9084D1E0C395F0A0
:10120300F0A3E09BF09084CDE025F0F0A3E03BF069
:0E121300E422740122120B62120CED207320F3
:10122100BA0005D27F021241BA0105D27C021241F5
:10123100BA0205D27D021241BA0305D27E021241E1
:0F124100020D46206FFAC2657AF7120CEDC2D388
:0F125000C2D41266521242A3D2D3D2D4020D4698
:0E125F002073DF9083B87403F005827430F0C2
:0E126D00120B62120CED8A79757A07120B6271
:0F127B00120CEDEA23FA7408C3957AFDEAC33327
:0F128A00C57933C579DDF7C579F5F09083B8E004
:10129900F582E5F0F00582E5827582B8F00582E015
:0F12A90014F070030212C5D57A0280B8AD7AE452
:0F12B800C579C333C57933C579DDF780B3C2D3A8
:0F12C700C2D4122D8C122E0A1242A3D2D3D2D42B
:0F12D600020D46120B62120CEDBA0038206E3575
:0F12E500C2D3755C8075A080C2AC206404D2991E
:1012F400D26474F0F3097400F3097400F309740EF2
:10130400F3097401F3097409F3097401F30974F717
:10131400F309D2ACD2D3020D46206F11C2D3C2D48A
:101324001239C3307303121E5AD2D3D2D4020D46DB
:10133400C2783073239085D3E4F01242789085D438
:0F134400E0B4FF08121590C26F02032812172998
:0F135300500A9085D3E00480E1121AC5207B1B5D
:10136200122F24601675F002122F6975F000A26325
:0E13720092F0122F6975F0F7122F6975F0FADC
:0F138000122F62D28D02138DD28D122F87D26F52
:10138F009084E57480F0C218C219C2759084CAE0C7
:10139F009084D3F0C2711242A3908389E4F0A3F03A
:0E13AF009084E5E014F0700F7480F0120705D2
:1013BD00122A4912372012443ED2D4D2D3120B66D0
:1013CD00C2D3C2D43018141215849084E2E04404C0
:0E13DD00F0900004F01216DA021334207503AB
:1013EB0030190BC26F121584121709020328E57D01
:0E13FB007029908389E004F07014A3E004F0E0
:10140900B4200D9082DEE0B402069082E0E070D54F
:0F141900206305120B55808E1209148089157DF2
:0F142800D2B2908389E4F0A3F09082C77480F071
:0F1437001556E55660030214E475F0F8122F62A3
:10144600D270755660E5582401D4F558E43557D462
:10145600F557B55908E558B55A030214660214EE55
:1014660030630630615D0214C030734B9085D3E063
:0F14760004F01242789085D4E0B4FF0302149F73
:0E14850012172940E87558017557009084E34E
:10149300B402030214CF1242A30214CF9085D3E403
:0F14A300F0206B08D26B9082E5E070C91242789E
:0E14B200121729C26F1215840203281216DACF
:0F14C000855F5D85605E0214CF85645D85655E26
:0F14CF0075580175570075566075550175770191
:1014DE007578010214EE5403700675F0F8122F623F
:0F14EE001555E5557025E556B4600B9084D6E092
:1014FD00908388F0021508908388E0F55514600CF0
:10150D009082E2E070033063031217DD1577E57703
:10151D00701C106708D26785667702152D85767762
:0E152D00E577147006306306304003122C3D43
:10153B003063061208FB021547120B557905157817
:0F154B00E578702A855D82855E83E0A310E70F47
:0F155A00C001121762D00119B900F0C2B280ECC3
:1015690060EAF57885825D85835EE9600B20E7088E
:0E157900783CD8FED9FAC2B20213AF30630339
:10158700120A0875F0FC122F629082DEE0B402089E
:10159700C2A9D2AA757D0022D2A9C2AA2220732E7F
:1015A7009084CAE0F5F09084D3E0B5F00930630980
:0F15B7009020890215C302161C902009121E2BCA
:0F15C6009084CAE0F5F0740E121EEA1216382255
:0E15D500901FC9121E2B9085D3E0049085F55F
:1015E30075F064842430F0A3740AC5F0842430F0C9
:1015F300A3E5F02430F09085D4E09085FE75F00AE1
:10160300842430F0A3E5F02430F09085CAE0F5F0AF
:0F1613007405121EEA12163822902389121E2B1C
:0F1622009084CAE0F5F07405121EEA9084D3E0BC
:0E163100F5F0740E121EEA74C8307302748D48
:10163F00121E0FE557121ECBE558C4540F121ECBC6
:0E164F00E558540F121ECB7485207306748E5E
:10165D0030710104121E0FC2702220636720736463
:0E166D00122B9150069084D3021694301C0C60
:0F167B009084D3E004B46411E4021694301B2F62
:0F168A009084D3E014B4FF027463F574122F241C
:0E169900601875F001122F6975F000122F69AC
:0F16A7008574F0122F6975F0F7122F69E574F052
:0F16B6001215A49082C6E0B4FF030216D1F5F01E
:0F16C50074FFF09084D3E5F0F01215A430700597
:1016D400C270021638229084D3E0F5F09084CAE0F8
:1016E400B5F00122E5F0F09082E3E0A2E0B392606D
:0E16F400121AC59084E3E0700BC271755801A4
:101702007557001215A42220731C9084CBE0F5F0CB
:101712009084CAE0B5F003021728C5F0F09084CB9C
:10172200E5F0F012184C22C394644024242EF5F004
:0E1732009085D6F09085D5E0A4F8A9F07464F7
:1017400012304FE9600278FFE89084D8F0121BC88D
:10175000D322C26B9082E3E0A2E0B39260121AC57A
:0E176000C322FA755C8275A08278CAE2606BC3
:10176E00306E23306520C002C083C082D2D4D2D363
:10177E00120B66C2D3C2D42065F2D082D083D002BF
:0F178E00755C8275A08278C78AF0E2C5F0540FAF
:0F179D00B5F0030217D924CCF8E2F5F078C8E2D2
:0F17AC006001144490D2D4755C8075A080C2ACEB
:0F17BB00206404D299D264F309E5F0F309E50242
:0F17CA00440FF309E5F0F309E4F309D2ACC2D4FC
:0F17D9001249C322755C8275A08278CAE2604D06
:0F17E800306E17306514D2D4D2D3120B66C2D331
:1017F700C2D42065F2755C8275A08278CBE2F5F0E1
:1018070078C8E26001144490D2D4755C8075A080DA
:0F181700C2AC206404D299D264F309E5F0F3095E
:101826007464F309E5F0F309E4F309D2ACC2D4E435
:0E183600B5570E04B5580A7460B556057AF021
:101844000249C37AC00249C3755C8475A08478CA0E
:10185400E2F56D25E0F8E2700574010230AB78CB57
:0F186400E2F56EB56D030218F0E56D25E0F8E2D0
:10187300F58308E22434F582E43583F5837906E0C1
:10188300B4FE2BA3D9F9E0B48C24A3E0B4FF1F1852
:10189300E4F2E582C3943BF5F078CDF2E58394005E
:0E18A30008F2F978D1E2243CF208E23400F2B7
:1018B100121973E56E25E0F8E2702679CEE3F5831F
:1018C100F21908E3F582F2126BB578CDE2243CF20D
:1018D10008E23400F278D1E2C3943CF208E29400C9
:0F18E100F29082E3E0A2E0B3926078CAE56EF283
:1018F00025E0F8E2F58308E2F582E0FAA3E0FBEAEE
:101900002582FAEB3583FBE5822433F55FE43583EA
:10191000F56078CFE208C3955FF9E2956013C913CB
:10192000255FF564E93560F565E564C39AFAE56518
:101930009B400560031470077A007B00021945C3C1
:1019400013FBEA13FA9084E6EAF0A3EBF0121AC54F
:10195000C261E566C39576C313F5F0E566C313C3AC
:1019600095F0F55B020AEE755C8475A08478CAE296
:101970000218F0E56EB56D00507804F5F025E0F83A
:0E198000E56D04C395F0F9E270070808D9F987
:10198E00021A6A896F79CDE3C39401FA09E39400D0
:10199E00FBE2F5F008E2188870F8C3EA98F582EBDE
:1019AE0095F0F583A3AE82AF8379CFE3FC09E3FD17
:1019BE00121A9078CDE2C39EF208E29FF278CFE23F
:1019CE00C39EF208E29FF278D1E2FE08E2FFA87011
:0F19DE00A96FE2600808E22EF218E23FF2080853
:0F19ED00D9F1021A6AF5F025E0F8E56DC3C5F0EF
:0F19FC0095F0F9E270071818D9F9021A6A896F85
:101A0B0079CFE32401FA09E33400FBE2F58308E222
:0F1A1B00188870F582E02582F5F0A883A3E038E3
:101A2A00C5F0C39AFEE5F09BFF79CDE3FC09E3FD1F
:101A3A00121A6B78CDE22EF208E23FF278CFE22E4C
:101A4A00F208E23FF278D1E2FE08E2FFA870A96F3D
:101A5A00E2600908E2C39EF218E29FF21818D9F070
:0F1A6A0022C006C007EE60010F8A828B83E0A3C3
:101A7900AA82AB838C828D83F0A3AC82AD83DEEA2C
:0F1A8900DFE8D007D00622C006C007EE60010FCD
:0F1A98008A828B83E0F5F0E582C39401FAE5833F
:101AA7009400FB8C828D83E5F0F0E582C39401FC02
:0E1AB700E5839400FDDEDADFD8D007D00622EA
:101AC500755C8475A08430730C9085D4E0B4FF08F0
:0E1AD5007464021ADD78CAE225E0F8E27015AA
:0F1AE300755DDB755E84755FDB756084755A0910
:0F1AF200755900021B42F58308E2F582A3A3E0B9
:0F1B0100F55AA3E0F55920601774312582F55D80
:0E1B1000F55F5002058385835E858360C260A9
:101B1E00021B42A3755C8375A0837803E0F2A308D1
:0F1B2E00B833F985825D85835E85825F8583602C
:0E1B3D00122E0AC260755601755800755700C9
:101B4B00755501757801757701C266C267121B5C0A
:101B5B00229084D5E0F5F09084D9E025F0F566E08D
:101B6B00C395F0F576229084CFE0F8A3E0F9AA6D47
:101B7B00AB6EAC6FAD70121BB31EEE7006EF700741
:0F1B8B00021B9FB4FF011FECB500EBEDB501E7A6
:101B9A00121BA380DA121BA322AC6DAD6E121BB30B
:0F1BAA00ECB56FF9EDB570F5228A828B83E0A35D
:0F1BB900AA82AB838C828D83F0A3AC82AD832292
:0F1BC8009084D8E0901BEC25E050020583FA933F
:101BD70010A908F57EEA0493F57F22F57EEA0493BF
:101BE700F57FD2A92285EE85EE85EE85EE85EE8519
:101BF700EE85EE85EE85EE85EE85EE85EE85EE8546
:101C0700EE85EE85EE85EE85EE85EE85EE85EE8B2F
:0F1C1700BE910795DA9A469E58A21AA594A8CFB7
:0E1C2600ABD0AE9FB13FB3B5B605B832BA3FF2
:101C3400BC2FBE04BFC1C166C2F7C474C5DFC739B7
:101C4400C883C9BFCAEDCC0ECD23CE2DCF2CD02155
:101C5400D10DD1F0D2CAD39CD467D52BD5E8D69F69
:101C6400D74FD7FAD89FD93FD9DADA71DB02DB90A4
:101C7400DC19DC9EDD1FDD9DDE17DE8EDF02DF73E7
:101C8400DFE0E04BE0B3E119E17CE1DCE23AE2962B
:101C9400E2F0E347E39DE3F0E442E492E4E0E52C80
:101CA400E577E5C0E607E64DE692E6D5E716E757A1
:101CB400E796E7D4E811E84CE886E8C0E8F8E92FAD
:0F1CC400E965E99AE9CEEA01EA34EA65EA96EAC7
:101CD300C5EAF4EB22EB4FEB7CEBA8EBD3EBFDEC8B
:101CE30027EC50EC78ECA0ECC7ECEDED13ED38ED00
:101CF3005DED81EDA5EDC8EDEAEE0CEE2EEE4FEEB7
:101D030070EE90EEAFEECFEEEDEF0CEF2AEF47EF74
:101D130064EF81EF9DEFB9EFD5EFF0F00BF026F014
:0F1D230040F05AF073F08CF0A5F0BEF0D6F0EE61
:101D3200F106F11DF134F14BF161F178F18EF1A46C
:101D4200F1B9F1CEF1E3F1F8F20DF221F235F249F7
:101D5200F25CF270F283F296F2A9F2BBF2CEF2E0FA
:101D6200F2F2F304F315F327F338F349F35AF36A63
:101D7200F37BF38BF39BF3ABF3BBF3CBF3DBF3EA32
:0F1D8200F3F9F408F417F426F435F443F452F4AB
:101D910060F46EF47CF48AF497F4A5F4B2F4C0F420
:0F1DA100CDF4DAF4E7F4F4F501F50DF51AF526B3
:101DB000F533F53FF54BF557F563F56EF57AF58696
:101DC000F591F59CF5A8F5B3F5BEF5C9F5D4F5DFA9
:101DD000F5E9F5F4F5FFF609F613F61EF628F632E6
:0E1DE000F63CF646F650F65AF663F66D78E0DD
:101DEE00755C8575A0857480121E0F121E0174C05D
:101DFE00121E0F7F10900007E2F0121E1C08DFF873
:101E0E0022900006F0121E1C000000000022C0E00E
:0F1E1E007413D5E0FDD0E022121E2B80C17F008F
:101E2D00755C8575A08578E0EF93F2080FBF20F8FB
:101E3D0022901FA9121E2B755C8475A08478CAE2AE
:101E4D00F5F0740D121EEA748D121E0F22901F896B
:101E5D00121E2B755C8575A08578CAE2F5F0740DA0
:101E6D00121EEA78D3E204F5F07415121EEA78D446
:101E7D00E2B4FF1B78F97445F208744EF20874440D
:0F1E8D00F27904742008F2D9FC121DEC021EC574
:101E9C00F5F0C39464401D242EF5F078F97454F2D7
:0E1EAC00087445F208744DF2087420F2741D9B
:101EBA00121F62021EC5741E121EEA748D121E0FB4
:0F1ECA00222430900007F0121E1C00000000229E
:101ED900755C8575A08578E07F207420F208DFFCA9
:0F1EE90022755C8575A08578E028F8E5F07F000C
:0F1EF800B46400400594640F80F6F5F0EF6004C9
:101F07002430F208E5F07F00B40A004005940A0F78
:0E1F170080F6F5F074302FF208743025F0F2E9
:0F1F2500021DEC755C8575A08578E028F8E5F065
:0F1F34007F00B46400400594640F80F6F5F0EF71
:101F43002430F208E5F07F00B40A004005940A0F3C
:0F1F530080F6F5F074302FF208743025F0F2228A
:0E1F6200121F28021DECC0E0C4121F78D0E050
:0F1F7000121F787420F20822540FB40A004005A3
:101F7F002437F208222430F208222053454C4543DF
:0E1F8F005420534F4E4720787820535445502D
:101F9D002061612020504154542062622053454CF1
:0E1FAD00454354205041545420787820202081
:101FBB002020202020202020202020202020534FB4
:0F1FCB004E472078782042454154206161615390
:0F1FDA00544550207979792050415454207A7A17
:0E1FE900434F50592046524F4D205041545402
:0F1FF7002020787820544F20504154542079797D
:0F200600202020504C4159494E472050415454FE
:102015002020616120202042454154207878782095
:1020250020202020434F50592046524F4D20534FDA
:0E2035004E472020787820544F20534F4E47BE
:0F204300207979202020524543454956494E4780
:10205200204D494449202053455155454E43452082
:10206200444154412E2E2E50524553532052454343
:102072004F524420544F2053454E44204D49444929
:0F208200204441544120205245435244494E4787
:0F2091002050415454207878202020424541545B
:1020A00020797979202020202020202020504154A0
:0F20B0005420787820202020204C454E4754485B
:0F20BF00207979792042454154534348414E4797
:0F20CE004553205041545420544F504C454E47D9
:0E20DD005448207979792042454154532020FF
:1020EB002020504154542078782020202020204C50
:1020FB00454E475448204348414E474544202043D2
:10210B004F505920434F4D504C45544520202020D3
:0F211B00202020202020202020202020202020D5
:10212A00544F4F204D414E5920535445505320206F
:0F213A002020494E20534F4E47202020202020A8
:102149002020494E5345525420494E544F202020B7
:10215900535445502078782020504154542079799F
:0F21690020202020202020202020202020202087
:0F21780020494E5345525420434F4D504C45542F
:0F21870045442043414E4E4F5420494E5345523C
:10219600542020204D454D4F525920495320465535
:0F21A6004C4C20202044454C4554452053544573
:1021B50050202020535445502078782020504154F9
:1021C5005420797920202020202020202020202024
:1021D5002020202044454C45544520434F4D504C2C
:1021E5004554454452454D41494E494E47204D457C
:1021F5004D4F525920207878202050455243454E66
:1022050054202020767676767676762050414420C6
:102215003D2078786E6E6E6E6E6E6E6E6E6E6E6E44
:102225006E6E6E6E767676767676762050414420A2
:0F223500202020205049544348203D20736E6ED6
:0F224400202020202076767676767676204F55ED
:1022530054505554206E564F4C3A206D6D202050EB
:10226300414E3A207878564F4943452050415241D8
:102273004D4554455253202020202053544F52455E
:1022830044202020202054554E4520504152414D9A
:10229300455445525320202020202053544F52456B
:1022A300442020202020204D495820504152414DA8
:1022B300455445525320202020202053544F52454B
:1022C300442020202020534F4E472054454D504F4B
:1022D300207878782520202054454D504F203D20EC
:0F22E30078787820202020544F4F204D414E59BD
:0F22F20020424541545320202020494E20504186
:0F230100545445524E2020205354455020787894
:0F23100078202B2079792F393676767676767687
:0F231F007620564F4C554D453A7A5357494E4705
:0E232E0020494E205245434F5244202020208B
:0F233C002078783D79792E792520202020205295
:0F234B0045504C414345205354455020202053CA
:0F235A00544550207878202050415454207979F0
:0F23690020202020202020202020202020202085
:10237800205245504C41434520434F4D504C455405
:0E2388004550415454207878204E4558543A20
:0F23960020797920202042454154207A7A7A20FC
:0F23A500202020205341564520414C4C205041D0
:0E23B400545453202620534F4E475320544F6D
:0F23C20020544150452020434845434B2054416F
:1023D10050452044415441202020464F522045522F
:1023E100524F5253202020204C4F414420414C4C0D
:0F23F1002050415454532026534F4E47532046FB
:0E240000524F4D205441504520204C4F414436
:10240E00204F4E45205041545420202046524F4DCF
:10241E0020544150453A2078782020204C4F41449A
:10242E00204F4E4520534F4E4720202046524F4DB1
:10243E0020544150453A207878202053454E442070
:0F244E00414C4C2050415454532026534F4E477D
:0F245D0053204F5554204D4944492020204552CB
:0E246C004153452050415454207878202020C0
:0F247A0020202020202020202020202020202073
:0E24890020455241534520534F4E472078784E
:0F24970020202020202020202020202020202056
:0E24A600202020312020534554204D49444928
:1024B40020202020202020204348414E4E454C3AE5
:1024C4002078782020322052454345495645204DF6
:0F24D4004944492020204452554D204E4F544535
:0F24E300533A204F787833205452414E534D498D
:0F24F20054204D49444920204452554D204E4F0F
:102501005445533A204F78783420534554204D494F
:102511004449204E4F544520767676767676763A43
:0E2521006E6E6E202020202035204543484F4E
:0F252F00204D49444920494E2020544F204D490A
:0F253E004449204F55543A204F787836204D4964
:0F254D0044492050524F4752414D202050415495
:0E255C00542053454C4543543A204F7878376D
:0E256A0020434C4F434B20534F555243453AAC
:0F257800207878787878787878787878787878A4
:10258700787838204D49444920434C4F434B204FDE
:0E25970055542020202020454E41424C453A0C
:1025A500204F78783920204155544F2053544152BB
:1025B500542020202020202020454E41424C453AE1
:1025C500204F7878313020434C49434B2056414CBD
:0E25D50055453A20202020202020312F7878F4
:1025E300202020202020313120434C49434B2049D7
:1025F3004E20504C41592020202020454E41424C32
:0F260300453A204F78783132204D414E55414CA9
:1026120020564F4943452F20202054554E452F4DDB
:1026220049583A204F787831332050414420445958
:102632004E414D4943533A20202078787878787873
:0F2642007878202020202031342020534F4E471D
:0F265100204C4F4F502020202020202020454E8D
:0F26600041424C453A204F78783135202053596C
:10266F005354454D204558434C20202020202045D1
:10267F004E41424C453A204F7878313520205359FE
:10268F005354454D204558434C20202020202045B1
:10269F004E41424C453A204F787853454E44494E6F
:0F26AF0047204F55542044415441544F204D492A
:1026BE0044492E2E2E2E2E2E2E2E2E534156494E60
:1026CE004720544F20544150452E2E504154543AD9
:1026DE00202D2D2020202020202020205441504528
:1026EE00205452414E534645522020202020204156
:1026FE00424F5254454420202020205645524946F0
:10270E0059494E4720544150452E2E504154543A6B
:0F271E00202D2D202020202020202043414E2739
:0F272D00542052454144205448495320564552A8
:0F273C0053494F4E2054415045202020204C4FF0
:0F274B004144494E4720544150452E2E202050E6
:10275A004154543A202D2D2020202020202020547E
:10276A00484953204953204E4F5420414E20204877
:0F277A00522D3136205441504520202020202060
:0F2789005441504520535045454420495320208A
:0F27980020544F4F20534C4F57202020202020FB
:0F27A7002020544150452053504545442049536C
:0F27B600202020544F4F204641535420202020F4
:0F27C500202020202020534F46545741524520BA
:1027D400425920202020204D415243555320525924
:0F27E4004C452020202054415045205452414E56
:1027F300534645522020202020434F4D504C4554F2
:0E28030045442020202044415441204D41599D
:0F281100204245204241442E204552524F5253FF
:0F28200020494E205441504520535441525420DA
:0E282F00504C4159494E4720202054415045FD
:10283D00204E4F572E2E2E20202020204C4F41442D
:10284D00494E4720504154542078782050415454DB
:10285D003A202D2D20202020202020204C4F414497
:10286D00494E4720534F4E472078782050415454BD
:10287D003A202D2D20202020202020205155414E62
:0F288D0054495A45205245434F524420202020A1
:0F289C00544F20312F78782020202020205155B4
:0E28AB00414E54495A45205245434F52442055
:0E28B90020202020202020204F4646202020D6
:0F28C70020204F4646534554207878782F3338D9
:0F28D60034746820202020202020202020202063
:1028E500202020204F464653455420434F4D504C01
:1028F5004554452020202020202020202020202055
:0F29050020202020202048415244574152452095
:0F291400425920202020204B4549544820424161
:10292300525220202020202054454D504F203D203E
:0F293300787820202020424541545320504552AF
:10294200204D494E555445202053414D504C45533E
:0E295200204259202020202020414C4C454E90
:102960002057414C4420202020534F465457415279
:0F297000452042592046415354464F5257415239
:10297F00442044455349474E5320434F5059494EE5
:0F298F0047205041545445524E20544F204D493B
:10299E0044492E2E2E2E2E2E2E2E2020504C4159B6
:0F29AE00494E4720414C45534953202020204497
:1029BD00454D4F20534F4E4720202020434F505917
:0E29CD00494E4720534F4E4720202020544FA4
:1029DB00204D4944492E2E2E2E2E2E2E2E20505277
:0E29EB004F44554354204D414E414745523A0A
:1029F90020204C4152525920445241474F20202017
:0F2A0900534F465457415245204552524F522089
:0E2A1800204E554D4245523A202020202020CD
:102A26002020202042554D4D45522C2044554445EA
:102A3600212020204D454D4F5259204953204655BF
:102A46004C4C209082F2E0C39401F0500CA3E014A9
:0F2A5600F0B4FF059082F4E4F0A92BAA257B08C9
:0F2A6500755C8375A0837892122B438A25A92A6A
:0F2A7400AA247B08122B438A24E54C7007E54BFC
:102A83007003022B36122C85F561755C8275A0826A
:102A930079007C00E3FB0429F975F001E54C55F05E
:0E2AA30060399082F27400F0A37403F0EC042A
:0F2AB1009082F4F0144561F3090B204013C0012B
:0F2AC000C003C004C0F0121762D0F0D004D003DE
:0F2ACF00D001E5F0F45225524E755C8275A0825D
:102ADE00E5F023F5F00CBC08B875F001E54B55F0A8
:0E2AEE0060399082F27400F0A37403F0EC04DF
:0F2AFC009082F4F0144561F3090B204013C001E0
:0F2B0B00C003C004C0F0121762D0F0D004D00392
:0F2B1A00D001E5F0F45224524D755C8275A08213
:102B2900E5F023F5F00CBC10B87900EBF3854E4CB9
:0F2B3900854D4B85254E85244D22EA20E012E97B
:102B480020E01603F9E2600214F2EA03FA08DBEB6C
:102B580022E2600474FE5202E903F97404F280EA86
:0F2B6800E52154F8600903030375F000022B8484
:102B7700E52254F8C3601203030375F0051305F04B
:0F2B870050FBE5F0B40A02E4D322122B68502869
:0F2B9600207119D271F550121ECB74F0121ECBA4
:102BA5007410121E0F90838BE4F0022BE1C271F8B2
:102BB500E55075F00AA428D32230712090838BE06C
:0F2BC50014F07018C271C272902BE1C082C083ED
:0F2BD40090838CE0F8A3E0F5828883E473C3223A
:0F2BE300122B6850D6207122D271F550121ECBE2
:0F2BF20074F0121ECB74F0121ECB7410121E0F53
:0F2C01007410121E0F90838BE4F080D410720EAB
:102C1000D272F54F121ECB90838BE4F080C3C27149
:102C2000F8E55075F064A4A9F0FAE54F75F00AA430
:102C30002AFAE439F9E82AF8E439F9D322204207DC
:0E2C400030400320630122306A0122755C825D
:0F2C4E0075A08279007C00E3FB0429F9E52B13C4
:102C5D00400E0CBC08F9E52A1340050CBC10F922F6
:102C6D00EC4561F30B7900CBF3CB204004121762D6
:102C7D00229082C7540FF02275907F000030B5026C
:0E2C8D00D297C296000030B502D296C29500D2
:102C9B0030B502D295C2940030B502D294C29300E3
:102CAB0030B502D293C2920030B502D292C29100DB
:0F2CBB0030B502D291C2900030B502D290E590B0
:0F2CCA00F5F09082E4E0B4030040049403C422C8
:0F2CD9009030BC2583F583E5F093229082E4E0F0
:0F2CE800B40300400D9403C4F51AC4904A7F93BF
:0F2CF700F51B229033BC2583F583E51A93F51B5B
:102D0600E51AD2E793F51A2275907F000030B402D7
:0E2D1600D297C296000030B402D296C2950049
:102D240030B402D295C2940030B402D294C293005B
:102D340030B402D293C2920030B402D292C2910053
:102D440030B402D291C2900030B402D290E5902205
:102D54009021E9121E2B75F0009084D1E0F8A3E0D5
:102D6400B47809B8C40675F064022D80600E14C3EB
:0E2D740013F9E813F8749A12304F88F07412B5
:102D8200121EEA122E931242A322122D9B122DAF73
:102D9200022DD0902269121E26122DEBE2F0A3A37F
:102DA200A3080808D9F622902289121E26122DEBBA
:102DB200A3A30808E054E0F5F0E2541F45F0F0A3A5
:0E2DC200A3A3080808D9ED229022A9121E260C
:0F2DD000122DEBA308E2F008A3E0541FF5F0E288
:102DDF0054E045F0F0A3A30808D9EB229084CAE091
:102DEF0025E0F582E0F9A3E02404F582E439F583C8
:0E2DFF00755C8375A0837803791022755C8360
:0F2E0D0075A083780079337A00122E360A0908EF
:0F2E1C00BA11F722FA755C8375A08375F003A4D1
:0F2E2B002400F8EA75F005A42433F9906BFDE25A
:102E3A0025E0F5F093F309E5F00493F3090808E2B5
:102E4A00541FF30918E2547F9036BC93F309E2F455
:102E5A005480C423F5F008E254E042F0EA902E6F61
:102E6A009345F0F3220F000102020203040506074C
:102E7A0008090A0B0D0E902A29121E2678007900DD
:0F2E8A007A0CD8FED9FCDAFA2290838EE554F048
:0F2E9900E553A3F0A3D0E0F0A3D0E0F090838B3B
:102EA8007414F07554B275532E2290838B304A04F3
:102EB8007414F022E014F060012290838EE0F5543F
:102EC800A3E0F553A3E0F5F0A3E0F58285F083E4F1
:102ED8007390838EE554F0E553A3F0A3D0E0F0A3FC
:102EE800D0E0F090838B7414F07554F875532E224B
:102EF80090838BE52B7004E52A60047414F022E0BB
:102F080014F060012290838EE0F554A3E0F553A3FA
:0F2F1800E0F5F0A3E0F58285F083E473207A03FF
:0F2F2700740022306505120B6680F8C0D0D2D43A
:0F2F3600C2D3755C8075A080C2AC206404D299B0
:102F4500D26474F0F3097400F3097400F309740E84
:102F5500F3097401F309D2ACD0D07401229082DF59
:0F2F6500E0700122E5F0C0D0D2D4C2D3755C80F9
:102F740075A080C2AC206404D299D264F309D2ACA7
:0F2F8400D0D0229082DFE070012230760AC27630
:0F2F930010780575F0FB80C7122FA21230222292
:102FA2007461C3955675F01884FAE55625F0F55606
:102FB200E55525F0F555E57825F0F578AC58AD578F
:102FC20012307AE82AF85001093073539085D3E021
:102FD200700122F574E4F0AA00AB0112427878D4B1
:102FE200758384E2B46400502725E0F582E070071F
:102FF2007C097D00023009F8A3E02402F582E4385E
:10300200F583E0FCA3E0FD12307AE82AFAE93BFB03
:1030120078D3E204F2B574C3124278A802A903225B
:0F302200D2D4755C8075A080C2AC206404D299B2
:10303100D26474F2F309E500A2E7C2E7F309E501FE
:1030410033C2E7F30974FBF309D2ACC2D4227F1077
:103051007C007D00FEC3E833F8E933F9EC33FCED85
:1030610033FD700AECB506005004DFE9EC22ECC335
:103071009EFCED9400FD0880F1ECC4540F75F00A3C
:0F308100A4F8EC540F28F8ED75F064A428F8E4D7
:1030900035F0F9E8C39401F8E99400F9E8C333F88E
:1030A000E933F9E8C333F8E933F922C0E0902A099B
:1030B000121E2BD0F0741E121EEA80FE707070700B
:1030C0007070707070707070707070707070707000
:1030D00070707070707070707070707070707070F0
:1030E00070707070707070707070707070707070E0
:1030F00070707070707070707070707070707070D0
:1031000070707070707070707070707070707070BF
:1031100070707070707070707070707070707070AF
:10312000707070707070707070707070707070709F
:10313000707070707070707070707070707070708F
:1031400060606060606060606060606050505050BF
:1031500050505050505050505050505040404040AF
:10316000404040404040404040404040404040405F
:0F31700030303030303030303030303030303080
:0F317F0030303030302020202020202020202011
:0F318E00202020202020202020201010101010A2
:10319D001010101010101010101010101010100032
:0F31AD0000000000000000000000000000000013
:1031BC007070707070707070707070707070707003
:1031CC0070707070707070707070707070707070F3
:1031DC0070707070707070707070707070707070E3
:1031EC0070707070707070707070707070707070D3
:1031FC0070707070707070707070707070707070C3
:10320C0070707070707070707070707070707070B2
:10321C0070707070707070707070707070707070A2
:10322C007070707070707070707070707070707092
:10323C007070707070707070707070707070707082
:10324C007070707070707070707070707070707072
:10325C006060606060606060606060606060606062
:10326C005050505050505050505050505050505052
:10327C004040404040404040404040404040404042
:0F328C0030303030303030303030303030303063
:0F329B0030202020202020202020202020202034
:1032AA002020101010101010101010101010000014
:1032BA0000007070707070707070707070707070E4
:1032CA0070707070707070707070707070707070F4
:1032DA0070707070707070707070707070707070E4
:1032EA0070707070707070707070707070707070D4
:1032FA0070707070707070707070707070707070C4
:10330A0070707070707070707070707070707070B3
:10331A0070707070707070707070707070707070A3
:10332A007070707070707070707070707070707093
:10333A007070707070707070707070707070707083
:10334A007070707070707070707070707070707073
:10335A007070707070707070707070707070707063
:10336A007070707070707070707070707070707053
:10337A007070707070707070707070707070707043
:10338A0070707070707070606060606060605050E3
:0F339A0050505050504040404040404030303044
:0F33A90030303030202020202020201010101035
:1033B800101010002E2E2D2D2D2D2C2C2C2C2B2BBF
:1033C8002B2B2A2A2A2A2929292928282828272765
:1033D8002727262626262525252524242424232395
:1033E80023232222222221212121202020201F1FC5
:1033F8001F1F1E1E1E1E1D1D1D1D1C1C1B1B1A1AF9
:0E340800191918181717161615151414131382
:103416001212111110100F0F0E0E0D0D0C0C0B0BBE
:103426000A0A09090808070706060505040403032E
:103436000202010100000000000000000000000080
:103446000000000000000000000000000000000076
:103456000000000000000000000000000000000066
:103466000000000000000000000000000000000056
:0F34760000000000000000000000000010101017
:0F34850010101010101010101010101010101048
:0F349400202020202020202020203030303030F9
:0F34A300304040404040405050505050506060CA
:1034B200606060607070707070702323222221211E
:1034C20020201F1F1E1E1D1D1C1C1B1B1B1B1A1A2E
:1034D2001A1A19191919181818181717171716166A
:0E34E2001616151515151414141413131313C0
:1034F0001212121211111111101010100F0F0F0FC4
:103500000E0E0E0E0D0D0D0D0C0C0C0C0B0B0B0BF3
:103510000A0A0A0A09090909080808080707070723
:103520000606060605050505040404040303030353
:10353000020202020101010100000000000000007F
:10354000000000000000000000001010101010101B
:0F3550001010101010101010101010101010107C
:0F355F001010101010101010101010101020204D
:0F356E002020202020202020202020202020206E
:0F357D002020203030303030303030303030309F
:10358C0040404040404040404040404050505050EF
:10359C00505050505050505060606060606060609F
:1035AC00606060607070707070707070707070704F
:1035BC00212020201F1F1F1E1E1E1D1D1D1C1C1C1C
:1035CC001B1B1B1A1A1A1919191818181717171662
:1035DC0016161515151414141313131212121111A7
:1035EC0011101010100F0F0F0F0E0E0E0E0D0D0DE3
:1035FC000D0C0C0C0C0B0B0B0B0A0A0A0A09090913
:0F360C0009080808080707070706060606050548
:10361B000505050404040404030303030302020267
:10362B000202010101010100000000000000000086
:0E363B00000000000000000000000000000081
:0F36490010101010101010101010101010101082
:0F36580010101010101010101010101020202043
:0F36670020202020202020202020202020203064
:1036760030303030303030303030304040404040F4
:1036860040404040404040505050505050505050A4
:103696005050506060606060606060606060606054
:1036A6006060707070707070707070707070707034
:1036B60070707070707000363738393A3B3C3D3E5A
:1036C6003F404142434445464748494A4B4C4D4E8C
:1036D6004F505152535455565758595A5B5C5D5E7C
:1036E6005F606162636465666767686869696A6A7C
:1036F6006B6B6C6C6D6D6E6E6F6F707071717272DC
:0F37060073737474757576767777787879797AC6
:0E3715007A7B7B7C7C7D7D7E7E7F7F855482EF
:10372300855383E4732234203620382031323136F6
:0F37330032343332343836344F46604030201849
:0E374200100C080601206F29307313121E5A56
:1037500090838C741EF0A3745AF090059D02377903
:10376000121E3E90838C741EF0A3743EF09004AE43
:103770000237791215A490166785825485835322E7
:103780001237CC90378D85825485835322203302A3
:1037900080B59084DA1237A6500B1237CC9084D5BE
:0F37A000E4F012381922122B68500914B4FF02FA
:1037AF007409F0D322301C0AE0B409030237C104B4
:1037BF0080F0301B06E060031480E7C32290288955
:1037CF00121E2B9084DAE0B409099028A9121E2644
:0F37DF000237E512380374C8121E0F9084DAE027
:0F37EE0090373D939084D9F0C313F55B121B5CA9
:1037FD00C261120AEE2290372925E0F893C804938E
:0F380D00F99085F8E8F0A3E9F0021DEC122F24E2
:0E381C00601E75F003122F699084DAE0F5F05B
:0F382A00122F699084D5E0F5F0122F6975F0F731
:10383900122F69227550001238DC90384D85825458
:1038490085835322204003023747301A0D1239C9A4
:0E385900122E937550001238DC22E525600D0A
:0F38670020730A755002134015055080F9E524AF
:0F387600606320736075500A134004055080F999
:0F3885009084E6E0F5F0A3E045F07009902A2961
:0F389400121E260238D21238DC121AC5756601D0
:0F38A30075760115501550755C8275A0827800FE
:1038B2007401F208E550F21208FB2061EB120A13C0
:1038C2009084D9E0C313F55B121B5CC261120AEE4D
:1038D200122ED97550001238DC22902469307303FD
:0F38E200902489121E2BE55060271475F008A45E
:1038F10090392BF5F0755C8575A08578F193F20808
:0F39010005F0E5F0B8F9F6903925E493F208A344
:0F391000B8FFF89084CA3073039085CAE0F5F0D1
:10391F00740C121EEA224552415345442020434C59
:10392F0049434B202020204B49434B202020534E0E
:10393F0041524520434C5320484154204D49442087
:10394F00484154204F504E20484154202020434C92
:0F395F00415053202050455243203320205045E3
:10396E0052432034202020544F4D2031202020540B
:10397E004F4D2032202020544F4D203320202054F4
:0F398E004F4D2034202020205249444520202036
:0E399D004352415348202050455243203120D0
:0F39AB00205045524320322020202050415454B8
:0F39BA0020202020534F4E47203073220239D552
:0F39C9007550123073167550131238DC755C850B
:1039D80075A085123EA178CAE2040239F11238DCDA
:1039E800755C8475A08478CAE2F56E25E0F879CE16
:0F39F800E2F583F31908E2F582F3E0FAA3E0FBAE
:103A070078D1E22AF208E23BF278CDE2F58208E2C9
:0F3A1700F583307306123E60023A251218C8225A
:103A2600755200755C8475A08478CAE225E0F8E2D8
:0F3A3600F58308E2F582A3A3E0F54FA3E0F55076
:103A4500C271C272903A55858254858353023B10E8
:103A550020340302374730050AE552045401F55274
:0F3A6500123B87122B68507D20711ED271F550D5
:0F3A7400121ECB7420121ECD7420121ECD74C8EA
:103A8300121E0F90838BE4F0023AF8207214D27264
:0F3A9300F54F121ECBE54FC4F54F90838BE4F037
:103AA200023AF8C0E090838BE4F0C271C272D0E0B7
:103AB200454FF54F700AE5507006754F01023AE422
:0F3AC200E550C39406401B600C30E710755000B0
:103AD100754F00023AE4E54FB483004006754F820A
:103AE100755006123B87023AF830710B90838BE0D8
:103AF10014F07003023A26301C10C21CE54F240159
:0F3B0100D4F54FE43550F55080B7301B32C21B5E
:0F3B1000154FE54F540FB40A00E54F400654F02F
:0F3B1F004409F54FB4A0004008540F4490F54FEF
:103B2E001550E550708EE54F708A755000754F0137
:0F3B3E008082301A4320714020723DE5507004A0
:0F3B4D00E54F602F122F24602775F004122F69A7
:103B5C00E54F33E55033541FF5F0E552A2E092F6F1
:0E3B6C00122F69854FF0C2F7122F6975F0F71E
:0F3B7A00122F69123BC7122E93023A2622E552F0
:103B890070149020A9121E2B9084CAE0F5F07409D4
:0F3B9900121EEA023BA59020C9121E2B9085F741
:0F3BA800E5502430F0A3E54FC4540F2430F0A3B0
:103BB700E54F540F2430F0121DEC74C7121E0F226C
:0E3BC7009020E9121E2B9084CAE0F5F07409DC
:0F3BD500121EEA123BE45006902A29121E2622E5
:0E3BE4009084E6E0F5F0A3E045F07002D322F5
:103BF200755C8475A08478CAE225E0F8E2F5830852
:0F3C0200E2F582A3A3E0FAC4540F75F00AA4CA36
:103C1100540F2AFAA3E075F064A42AFAE435F0FB04
:0E3C21001ABAFF011B8A0E8B0FE54FC4540F19
:103C2F0075F00AA4F8E54F540F28F8E55075F064C5
:103C3F00A428F8E435F0F91582E582B4FF02158364
:103C4F00E8C39AFAE99BFB5014C082C0839084D2D8
:0E3C5F00E0D083D0826038146035023CA4EAC5
:103C6D0075F060A4FAEBABF075F060A42BFBE8CA1D
:103C7D00F8E9CBF9747E12304FAC82AD839084D1CC
:0F3C8D00E0C398A3E08D838C82141420E7039981
:0F3C9C005002D322A802A903E54F2401D4F0A3BC
:0F3CAB00E5503400F0E875F060A4A8F0F54FE99B
:0E3CBA0075F060A428F550121AC5E552706E20
:0F3CC800756601757601E54F60020550120A69B5
:103CD700D54F2BD55028306141856882856983E0AF
:0F3CE70020E70B1582E582B4FFF5158380F1A36A
:0F3CF60074FFF0858268858369120AEE023D2112
:0F3D05002061CC88828983748004B4FE04F0A30B
:103D14007480D54FF5D550F2F0A374FFF0120A1356
:103D24009084D9E0C313F55B121B5CC261120AEEE6
:103D3400C322E50E75F060A4A9F0F8E50F75F060F4
:103D4400A429F9E54FC398FAE55099FB404A884FF6
:103D54008950A802A903747E12304FF5F08564825D
:103D6400856583E860010949600874FEF0A3D8FC06
:103D7400D9FAE5F0D2E7F0A85F85605C855CA0E243
:0F3D840010E70AA3F008B800F6055C80EF60F6C0
:0F3D9300858268858369023CC8E8C3954FFAE9C9
:103DA2009550FB855F82856083E0A330E7FBC2E725
:103DB200F5F0EAC395F0F8EB94004008FB48600484
:103DC200AA0080E5E5F0C39AF56785826285836380
:103DD200756C007A00D26185646885656985688240
:0F3DE2008569837480F0120A8D023CC8755C8578
:0F3DF10075A08578CAE204F56D25E0F8E270054B
:0F3E000074020230AB78CBE204F56EB56D01228F
:103E0F00123EA1E56D25E0F8E2F58308E2F582E4C4
:103E1F003583E0B403248583F0A3E085F083158216
:0F3E2F00701818E4F2E58278CDF2E58308F2F915
:103E3E0078D1E22403F208E23400F2121973E56E2F
:0F3E4E0025E0F8E2700F79CEE3F583F21908E36F
:0F3E5D00F582F2123FD378CAE56E14F29084CD4D
:103E6C0079CDE3F0A309E3F09084CF79CFE3F0A30D
:0E3E7C0009E3F09084D179D1E3F0A309E3F0DB
:0F3E8A009085D3E4F01242789085D4E0B4FF0421
:103E9900121AC522121729229084CD79CDE0F3A3F5
:0E3EA90009E0F39084CF79CFE0F3A309E0F3B2
:103EB7009084D179D1E0F3A309E0F3229084D8E08C
:103EC7009085D6F090059D85825485835390838C89
:0F3ED700741EF0A3745AF0755C8475A08478E3B0
:0E3EE6007401F278CAE278CCF278CB7464F200
:103EF40012184C755C8475A08478C8E2F583E4F2EA
:103F040008E2F582055C05A07800E583F208E58205
:103F1400F2123FEE9084CDE0C39439F0A3E0940014
:103F2400F09084D1E02439F0A3E03400F078CCE2BE
:103F340078CBF278CA74FFF2D273123DEE121E5A95
:0F3F44009084E2E054FEF0900004F0229004AE6E
:103F530085825485835390838C741EF0A3743EF042
:103F63009084E3E4F0755C8575A08578CAE278CC2B
:0F3F7300F278CB74FFF2123DEE755C8575A08578
:0F3F82007800E2F583E4F208E2F582155C15A001
:103F910078C8E583F208E582F2126BB578D1E2C305
:103FA1009439F208E29400F278CDE22439F208E281
:103FB1003400F278CCE278CBF278CA7464F2C2733E
:103FC10012184C121E3E9084E2E04401F09000046D
:103FD100F022123FEE78CDE22403F208E23400F23F
:103FE10078D1E2C39403F208E29400F2227E08EE53
:0F3FF10083F0A30EEEB40BF8220300FF90400AFA
:10400000858254858353124080222038030237472B
:0F401000201A01229085D4E0B4FF01229021C92B
:0E401F007F10121E2D121DEC124031122E9336
:0F402D00124080229085D4E0B4FF01221242801D
:0F403C008583F0A3E0158285F083F0A3B4FFF134
:10404B0078CAE20425E0F8E2F58308E2F582E0C3E2
:10405B009401F0A3E09400F09084CDE0C39401F0C0
:10406B00A3E09400F09084D1E02401F0A3E03400AD
:0E407B00F0124278221242789021A9121E2BD8
:0F408900755C8575A085121E7074D0121E0F22F3
:0F409800C2719085D4E0B4FF01E4F5759040BB90
:1040A70085825485835390838C7442F0A37453F0B4
:0F40B700124253222039030237471240E45003CC
:0E40C600124253301A172071149021697F1096
:1040D400121E2D121DEC1241B8122E9312425322BD
:0E40E400E575B46400500A122B91502BF5754F
:0F40F20002414C122BE35021E97018E8B4C900C9
:0E41010050122436B464004005F57502414C9E
:0F410F0075756402414C7575FE02414C301C17EA
:0E411E00C2710575E575B4FF05157502414CBB
:10412C00B4641D75750002414C301B16C2711575B7
:10413C00E575B46305057502414CB4FF03757563F1
:0F414C00D322300710C207E575C39464E4500214
:0E415B0074AEF57580EBC322C2719085D4E07E
:0F416900B4FF01E4F57590418685825485835338
:0E41780090838C7441F0A374B2F01241B22215
:0E4186002031030237471240E450031241B2C9
:0E419400301A1A2071179023697F10121E2D09
:1041A200121DEC1240311241B8122E931241B2226A
:0F41B2009023490242569084CFE0FAA3E014FB19
:0F41C1009085D3E0F57474FFF0755C8575A0856B
:0F41D00079D3E304F3124278B4FFF7E3B4FE109F
:1041DF009085D3E574F0124278902129121E262281
:1041EF00A3EAC39582EB95839085D3E574F0500ACB
:0F41FF00124278902189121E2622124278F5F082
:0F420E00E575F0A3E0C5F0F0B4FFF878CAE2045C
:10421D0025E0F8E2F58308E2F582E02401F0A3E061
:0F422D003400F09084CDE02401F0A3E03400F0E1
:10423C009084D1E0C39401F0A3E09400F09085D376
:10424C00E004F012427822902149121E2B9085D363
:10425C00E004F5F07415121EEAE575121E9CE57566
:10426C00B4640074CD500104121E0F22124280E07F
:10427C0078D4F222755C8575A08578CAE20425E0B5
:0F428C00F8E2F58308E2F582A3A378D3E2258256
:0F429B00F582E43583F583229084E3E0306F05EC
:0E42AA0054FE6007E023239042D7731215A440
:0E42B8009084E2E044F8F0900004F090166765
:1042C60085825485835390838C7415F0A374A4F06F
:1042D600220242F200024314000243380002436DF8
:0F42E60000024391000243B3000243D5121E3E73
:0E42F5009084E2E044F9F0900004F09004AEF2
:1043030085825485835390838C741EF0A3743EF08E
:1043130022121E5A9084E2E054FE44F8F090000406
:10432300F090059D85825485835390838C741EF091
:0F433300A3745AF022122D0E9084E4E590F0C48A
:10434200540FF5527575001256BC9084E2E0447821
:10435200547FF0900004F090551285825485835367
:0E43620090838C7456F0A374BCF0221245D8E0
:104370009084E2E044B854BFF0900004F090449977
:1043800085825485835390838C7445F0A374D8F050
:10439000221246EF9084E2E044D854DFF09000040B
:0F43A000F0904633858254858353304A05C21FFF
:1043AF0002463E221247BE9084E2E044E854EFF00A
:1043BF00900004F0904725858254858353304A0539
:0F43CF00C21E024730221248AB9084E2E044F055
:1043DE0054F7F0900004F09047F98582548583538A
:0F43EE0090838C7448F0A374ABF0304A05C21D65
:0F43FD0002480422201D3A201E37201F34E520DD
:10440C007021E5215407701BE52254027015E52339
:0F441C0054E0700F2010089082C6E0B4FF052214
:10442B00306F01229084E3E430730104F01242A355
:10443B0002372074022006110420070D04201F09E7
:0F444B0004201E0504201D01229084E3F5F0E0FB
:0F445A00B40403024469B40503024469B40614B0
:0E446900E5F0B40403024482B4050302448269
:0F447700B40603024482E5F0757500F07552003B
:10448600754F00C271C272122D0E9084E4F0D27480
:104496000242A3300704C207808F12493B122BE366
:0F44A60020730302454E501CE97010E8B4C900A2
:0E44B500500AB43200500774320244C374C877
:0F44C3009085D5F01245D8301C16124949C271A8
:0E44D200C2729085D5E004B4C9030244E0F044
:1044E0001245D8301B16124949C271C2729085D547
:0F44F000E0B432030244F914F01245D8122D0E35
:0E44FF003074199084E4E0B590030244010487
:10450D00B590030244011414B59003024401E590E3
:0F451D0075F003A4F8A9F0740512304FE82432AA
:10452C00B4C900400274C8C274C271C2729085D5FD
:0F453C00F5F0E0B5F003024401E5F0F01245D8C8
:10454B000244015017E9700BE8B4140050077414BF
:0F455B0002456074FF9084D8F01245D8301C12CE
:0F456A00124949C271C2729084D8E0046001F016
:104579001245D8301B16124949C271C2729084D8AB
:0F458900E0B4140302459214F01245D8122D0E1F
:0E4598003074199084E4E0B5900302440104ED
:1045A600B590030244011414B59003024401E5904A
:1045B600B4140050027414C274C271C2729084D8CA
:0F45C600F5F0E0B5F003024401E5F0F01245D83E
:1045D50002440120731A902929121E2B9084D8E0D9
:1045E500F5F0740A121F62748A121E0F121BC8227C
:1045F5009022C9121E2B9085D6E0F5F09085D5E066
:0F460500A4F8A9F0746412304FE9600278FFE85E
:0F4614009084D8F0F5F0741A121F289085D5E025
:10462300F5F0740B121F62748B121E0F121BC8223B
:0E463300301F13C21F204A0302442F307303AE
:1046410002442F122DCAD272307208204F05C27255
:104651001246EF124922500C122D0E9084E4E5907F
:0F466100F01246EF122B68501679001460051402
:10467000700E79801248F9A3E0547F49F01246EF9A
:10468000301B111248F9A3A3E02420B4E000500429
:10469000F01246EF301C0F1248F9A3A3E0C3942098
:1046A0004004F01246EF122D0E9084E4E0B5900322
:0F46B00002440104B590030244011414B59003B1
:1046BF00024401E590F01248F9A3E05480F9E59027
:1046CF00C394025001E475F00584A8F0B80300B359
:1046DF0033B464004002746349F01246EF024401A0
:1046EF009022491248EFA3E0F5F0A3E054E0C4FF95
:0F46FF0078EF743210F70114F2EF24B3F582E470
:10470E003449F58378FEE493F208740193F274153C
:0F471E00121EEA122E0A22301E13C21E204A0358
:0E472D0002442F30730302442F122DA9D272C2
:10473B00307208204E05C2721247BE124922500336
:10474B001247BE301C19C2711248F9A3A3E0541FC3
:0F475B000420E50BF5F0E054E045F0F01247BE06
:10476A00301B18C2711248F9A3A3E0541F600C143D
:0E477A00F5F0E054E045F0F01247BE122D0EAF
:0E4788009084E4E0B5900302440104B5900370
:0E4796000244011414B59003024401E590F0B2
:0F47A4001248F9A3A3E054E0F5F0E590030303F6
:0E47B300541F45F0F01247BE02440190222927
:1047C1001248EFA3A3E0541F75F003A42453F5820C
:0F47D100E43449F58378F875F000E5F093F208C9
:1047E00005F0B8FBF6E575700978E87420F208F278
:0E47F00008F2121DEC122E0A22301D13C21DFB
:0F47FE00204A0302442F30730302442F122D95DB
:10480D00D272307208204D05C2721248AB12492285
:0E481D00500C122D0E9084E4E590F01248AB82
:10482B00122B915013600814B42F004002742EF910
:10483B001248F9E9F01248AB301C12C2711248F958
:10484B00E004B42F004002742EF01248AB301B0D65
:10485B00C2711248F9E0600514F01248AB122D0E2C
:0E486B009084E4E0B5900302440104B590038C
:0E4879000244011414B59003024401E590F0CE
:104887001248F9E59075F004A42408F8E435F0F926
:0E489700741512304FE8B42F004098742EF0C4
:0E48A5001248AB0244019022091248EFE0FFD6
:1048B30075F010A4245FF582E5F0346CF58378F08D
:0F48C30075F000E5F093F20805F0B800F6E57522
:0F48D200700978E87420F208F208F28FF005F010
:0E48E100740E121EEA748E121E0F122E0A2280
:0F48EF00121E2B78E0E575124907908300E575DE
:1048FE0075F003A42582F5822275F008A490392B59
:0F490E00F5F0755C8575A0857907E5F093F208E3
:0F491D0005F0D9F72275F000E525700975F0084F
:0F492C00E5247002C32205F01350FB85F07522BD
:0E493B00E52054C045214522452354F860096B
:10494900122D0E9084E4F0D274222D31362D31359A
:104959002D31342D31332D31322D31312D31302D51
:1049690039202D38202D37202D36202D35202D3476
:0F497900202D33202D32202D31203020202B31C6
:0F498800202B32202B33202B34202B35202B36A5
:0F499700202B37202B38202B39202B31302B3180
:1049A600312B31322B31332B31342B3135333E32EF
:0F49B6003E313E3C3E3C313C323C333F3FC082C1
:0E49C500C083EA548F10E70F9082C7F5F0E030
:0F49D300B5F003024A22E5F004755C8375A083FA
:1049E200783375F005A428F8900000F0900002E2F8
:1049F200F008E2F008E2F008EA5470C4904A7F93AB
:104A0200F5F0E26003C395F0904A8793900002F0BC
:104A120008E2F853000FB80B06B27920790104F0CE
:104A2200D083D08222C082C083EA10E70C9082C772
:0F4A3200E0B50203024A7AEA04755C8375A0833B
:104A4100783375F005A428F8900000F0900002E298
:104A5100F008E2F008E2F008E26006C3951B50019D
:0F4A6100E4904A8793900002F008E2F853080FA0
:104A7000B80B06B27920790104F0D083D082221DD0
:104A8000140F0C09060300F8F9FAFBFCFDFEFFE821
:104A9000E9EAEBECEDEEEFD8D9DADBDCDDDEDFC8FE
:104AA000C9CACBCCCDCECFB8B9BABBBCBDBEBFA8EE
:0F4AB000A9AAABACADAEAF98999A9B9C9D9E9F67
:104ABF0088898A8B8C8D8E8F78797A7B7C7D7E7FAF
:104ACF0068696A6B6C6D6E6F58595A5B5C5D5E5F9F
:104ADF0048494A4B4C4D4E4F38393A3B3C3D3E3F8F
:104AEF0028292A2B2C2D2E2F18191A1B1C1D1E1F7F
:104AFF0008090A0B0C0D0E0F755C8275A08278F9F0
:104B0F00E2700122D278E4F208E223FC08E2C31338
:0E4B1F00FDEC13FC9085D3E4F0D26B124278CB
:104B2D003073149085D4E0C004C005121729D00548
:104B3D00D004500F024B929082E3E0A2E0B392605A
:0F4B4D00121AC5E55AC4540F75F00AA4F8E55AB8
:104B5C00540F28F8E55975F064A428F8E435F0F9F9
:104B6C00E8C39401F8E99400F9E8C333F8E933F9A0
:104B7C00E8C333F8E933F9ECC398F5F0ED99402527
:0F4B8C00FDACF030731C9085D3E004F01242783A
:104B9B009085D4E0B4FF8B306B01229085D3E4F089
:104BAB00124278024B2D8C6E8D6FEC75F018A4FCB5
:104BBB00A8F0ED75F018A428FDE56E5403904C5C3D
:104BCB0093F556E56FC313F9E56E13F8E9C313F9C3
:104BDB00E8132401F8E439F9E8C39464F8E9940084
:104BEB00F9055750F31557E82464F8E875F00A8473
:104BFB00C445F0F558AA04AB05855D82855E83E05C
:104C0B00A310E70280F9CAC39AF5F0EB94004007B2
:0E4C1B00FBAAF045F070E8E5F0F40404F5782B
:104C290085825D85835E9084D6E0AA04AB05A804DD
:0E4C3900A90512304FF5F0E0C395F004F555D3
:0F4C47009084D9E0A802A90312304FF5F0E0C322
:104C560095F004F577226149311975A8009026C9A7
:104C6600121E2675A00078087437F27800758D300C
:104C76007A0679DCE4D2AFD2AB124DC6D9FBDAF9AB
:0F4C86007F017401124DC87F01124DE6790AE4D7
:0F4C9500124DC6D9FB7455124DC67481124DC60F
:104CA4007401124DC6750B00850BF07416121EEAC2
:0E4CB400758384E50B25E0F582124D28E50B93
:104CC200B464E79085F07453F0A3744FF0A3744E6C
:0E4CD200F0A37447F0E50BC39464F5F074167C
:0F4CE000121EEA758385E50BC3946325E0F58208
:0F4CEF00124D28E50BB4C8E0E4124DC6124DE497
:0E4CFE00124DE49027E9122E83C2AB758DFF94
:0F4D0C00758BFFC298C299C289D2AC9082DEE04B
:104D1B00B40205D2A8D2AF22D2A9D2AF2275A0007D
:0F4D2B007800750800750900750A00E4124DC67E
:104D3A00124DC6124DC6124DC67455124DC6E50B1C
:104D4A00124DC6620A2508F50850020509E0700DE1
:104D5A007400124DC67400124DC6024DB0F5F0A390
:104D6A00E0F58285F083E0C394029268FA124DC698
:104D7A00620A2508F50850020509A3E0A330680174
:104D8A0014F9124DC6620A2508F50850020509EA07
:104D9A00600109E0A3124DC6620A2508F50850020F
:104DAA000509DAEFD9EDE509124DC6E508124DC637
:104DBA00E50A124DC6E4124DC6050B227F08C0E073
:0F4DCA007E021340027E0C8E6EC0E0E230E11FCD
:0F4DD900E56E70F8D0E0DFE9D0E0227F00C0E0A7
:104DE800756EF0E230E109E56E70F8DFF3D0E0228D
:104DF800758133124D079026E9022E83C0D0C0E09A
:0F4E0800E56EC313F56E74FF333333F5B0D0E0AE
:0E4E1700D0D032C04F30730C123F509065ACBB
:0E4E2500858254858353902829121E26E54F5E
:104E33009084CBF012184C7552001239E89028492F
:104E4300121E2BD00FE50F75F00A849085ED2430E8
:0E4E5300F0A3743025F0F0D268024ECCC04FB0
:0F4E610020730C123EC39065AC85825485835339
:0F4E7000902829121E26E54F9085CBF0123DEEBB
:0F4E7F001239D5902869121E2BD00FE50F24642D
:0F4E8E00C50F75F00A849085ED2430F0A37430C1
:0E4E9D0025F0F0D268024ECC902829121E2675
:104EAB00902709D268750FFF024EC9C273120073A7
:0E4EBB00121AC5902829121E26C26890274997
:104EC900121E2B75A80075A00078087437F27800B7
:0F4ED900750C08750D00750E007B8079007A004E
:0E4EE800125272E5F0C3950EC5F0F50EE5F01E
:104EF60030E702F404B4040050E2E50E29F950014B
:104F06000ADBDFEA0303543FCAC39AF50EB40D0069
:104F16005003024F9FB4F1004003024F93121DEC61
:104F260075A0007800E230E11B20B3F9E230E1140D
:104F360030B3F9A90EE230E10BE50C65B020E307CA
:104F4600D9F380E1024DF8E50E25E0F9E230E1F40F
:0F4F5600E50C65B030E30DD9F37A28A90ED9FE2A
:0E4F6500DAFA750C0012521412521BB48114A9
:0E4F730012521BB402004030758133124D07FC
:0F4F8100902729022E83758133124D07902769DF
:0F4F9000022E83758133124D07902789022E83DD
:0E4F9F00758133124D079027A9022E837E8460
:0E4FAD00750B00908600E50B25E0F9850BF0F2
:104FBB00125117E50BB464F07E8530680675A08539
:104FCB00024FDD75A084E4F309F375A0857900F336
:104FDB0009F378F07453F208744FF208744EF20828
:0E4FEB007447F2E50BC39464F5F00425E0F979
:0E4FF900125117E50BB4C8ED12500B124D0704
:0F500700758131222068030250B0E50FB4FF36E7
:105016009085FBE0B420069027E9025040902809CD
:10502600121E26900008E4F0D5E0FD900008E4F09A
:10503600900000E00460FC025043122E83124D07DC
:0F50460075812F020328C3946450169082E3E013
:0F505500A2E0B39260121AC5E50F25E0758384BF
:1050640002506D0425E0758385F582E0F5F0A3E038
:10507400F58285F083E0F5F0A3E0F9E5F02582FA06
:10508400E93583F91ABAFF01199084CDEAF0A3E94E
:10509400F09084CFE0C39AFAA3E099F90ABA000128
:0F50A400099084D1EAF0A3E9F002501675A085B7
:0E50B300D27378C8E2700AE583F208E582F253
:0F50C100123FEE75A08478CDE582F208E583F208
:1050D00078CF74FFF2C39582F5820874FEF295834F
:1050E000F58378D1E58204F20870020583E583F246
:0F50F0009085CA7463F09084CCE4F09085FBE067
:1050FF00B420129027E9122E83123F509085CCE4F2
:0E510F00F0124D0722025023C082C083741696
:10511D00121EEAD083D082750800750900750A0049
:10512D0075A000780012521412521BB50B3E620A84
:10513D002508F5085002050912521BFA620A2508C6
:10514D00F5085002050912521BFB620A2508F508E5
:10515D0050020509EB4A703130680509090251FC0E
:0F516D008EA0F309F30975A0000251FC75A0850F
:10517C0078FB7445F2087452F2087452F208744FBA
:0F518C00F2087452F28EA0050B228EA030682814
:0E519B00E50FB50B349084D2E0C394024005BA
:1051A900B50300500A122E80124D0775813322E390
:1051B900F58309E3F582090251CBE583F309E58219
:0F51C900F309EA2402F0A3E43BF0A375A000EA87
:1051D80060010B12521BF5F0306805E50FB50B04A2
:1051E800E5F0F0A3E5F0620A2508F5085002050984
:1051F800DAE1DBDF12521BB5090F12521BB50809A1
:0F52080012521BB50A03050B22025179125223D1
:0F521700B455FA227C08125223DCFB22C0E0E2DD
:1052260030E135E50C65B020E3F5AF0EE230E1285C
:0F523600E50C65B020E31CDFF3AF0EDF06050DBE
:10524500E50D6023E230E111E50C65B030E3EDC317
:0F525500D0E01322D3D0E01322306808E50F0415
:0F526400600312500B024DF89026E9025026E22B
:0F52730030E1F320B3F975F000E230E1E9E5B086
:1052820020E30405F080F3E230E1DCE5B030E30432
:0E52920005F080F32290000474FFF090541297
:0F52A000122E8390800075F000E5F0F0A3240338
:1052AF00F5F0E58370F490800075F000E0B5F01232
:0F52BF00A32403F5F0E58370F3905432122E838D
:0E52CE000252D99054421253F980FE9054526D
:1052DC001253F990000078FE7901E49328F85001FC
:0E52EC0009A3E582B4FEF3E583B47FEEE493FC
:0F52FA00B5010F740193B500099054721253F966
:0E5309000253149054621253F980FE905482A5
:0E5317001253F3900004E4F01253E61253E632
:0F5325001253E690000474FEF01253E674FFF08A
:105334001253E675F0FD7F07E5F0F01253E6E5F051
:10534400D333F5F0DFF274FFF0C298C2999054C2DF
:0E5354001253F920981F7599001253E6C29863
:0E5362007599551253E630980EE599B4550929
:0F5370009054E21253F90253819054D21253F920
:0F537F0080FEC28BC2B29054921253F9208B1150
:0E538E00D2B21253E6308B099054B21253F98A
:0E539C000253A79054A21253F980FE9054F2CF
:1053AA001253F39083337487F0A37435F0A3741007
:0F53BA00F0A37440F0A374B0F09000087437F0C3
:0F53C9007AF01249C3900000780079007A02E070
:1053D80030E108D8FAD9F8DAF680E602018F7A04C3
:0E53E80078007900D8FED9FCDAFA22125407B8
:0F53F600021DEC125407121DEC1253E61253E67F
:1054050080DF75A08578F07F10121E352248523155
:105415003620444941474E4F53544943535445530D
:1054250054494E472052414D2E2E2E2020485231B0
:105435003620444941474E4F535449435320414C2C
:105445004C2052414D204F4B2020202020204552FA
:0F545500524F5220494E2052414D2020205445A5
:105464005354494E47204550524F4D2E2E2E4552EF
:0F547400524F5220494E204550524F4D2020207C
:1054830020204550524F4D204F4B202020202020DC
:0E54930020204C454420544553542020202016
:0F54A100205441504520494E2F4F55542054451B
:1054B0005354205441504520492F4F204552524FBC
:0E54C0005220205441504520494E2F4F555444
:0F54CE00204F4B204D49444920494E2F4F5554F4
:0E54DD002054455354204D49444920492F4F37
:1054EB00204552524F5220204D49444920494E2FBE
:0F54FB004F5554204F4B2020444143204F4646ED
:10550A005345542043414C20300605C20602442F1D
:0E551A00122D0E9084E4E0B590030255440477
:10552800B590030255441414B59003025544E59010
:0F553800F0C4540FF5527575001256BC12554A47
:0F554700024401E55290555223237302559100FF
:105556000255B7000255BD000255C3000255F800BA
:105566000256160002561C0002565D0002566300E3
:1055760002566900025681000256870002568D00C7
:0E5586000256A70002560700025607122B918C
:0F5594009082C8500AB41100401474100255B22E
:1055A300301C05E004B41107301B08E0600514F05B
:1055B3000256BC229082C90256AA9082CA0256AAF7
:0F55C300E57524CBC0E0122BE3D082758382E91B
:1055D2006002787FE830E702747F40D4301C05E037
:1055E2000430E7CC301B06E060031480C31249226A
:1055F2004001221256BC9082DC1256AA9082DCE054
:0F560200A2E0926E229082E61256AA9082E6E013
:0E561100A2E0927A229082DD0256AA122B6845
:10561F009082DE500E600CF5F054FC7006E5F0142D
:0F562F00025641301C05E004B40307301B1FE096
:0F563E00601C14F06011C277B4020EC28BC2A9B7
:10564D00D2AA757D000256BCD277D2A90256BC22D1
:0F565D009082DF0256AA9082E00256AA9082E164
:10566C001237A6500F1256BC9082E1E090373D9352
:0E567C009084D6F0229082E20256AA9082E339
:0E568A000256AA301C089082E4E004B40B0A19
:0F569800301B0B9082E4E0600514F00256BC2238
:1056A7009082E5301C067401F00256BC301B05E4FD
:0F56B700F00256BC22758324E552C4C33350025F
:0F56C600058324A9F58250020583121E2BE5529D
:0E56D5009056DB23237302571A000257290058
:1056E30002572E000257330002575A000257640034
:1056F300025769000257BC000257C1000257C60097
:105703000257ED000257F2000257F7000258C50096
:0E57130002575F0002575F9082C8E09059076E
:0F5721001258E874CC021E0F78C90258C778CA14
:0F5730000258C7E57578F0124907758382E57551
:10573F0024CBF582E0C0E0F5F07418121F62D0E0C0
:10574F0090594B1258E874C8021E0F78DC0258C7E4
:0F575F0078E60258C778DD0258C79082DEE0C4B2
:0F576E00247CF582E43457F583755C8575A0853E
:0F577D0078F07F10121E35121DEC74C1021E0F42
:10578C00204D494449202620494E5445524E414C07
:0E579C0020494E5445524E414C204F4E4C5920
:0F57AA00202020544150452053594E4320494E52
:1057B90020202078DF0258C778E00258C79082E19C
:1057C900E0B409189085F67420F0A3F0A3744FF0A3
:0F57D900A37446F0A3F0121DEC0257E812380338
:0F57E80074C8021E0F78E20258C778E30258C750
:0E57F7009082E4E0C42405F582E43458F58382
:10580500755C8575A08578F07F10121E35021DEC3C
:0F58150020534F465420524553504F4E53452079
:0F58240020204D454449554D20524553504F4E7D
:0E5833005345204C4F554420524553504F4E84
:105841005345202020464958454420564F4C554D3C
:105851004520312020464958454420564F4C554D4E
:105861004520322020464958454420564F4C554D3D
:105871004520332020464958454420564F4C554D2C
:105881004520342020464958454420564F4C554D1B
:105891004520352020464958454420564F4C554D0A
:1058A1004520362020464958454420564F4C554DF9
:1058B1004520372020464958454420564F4C554DE8
:1058C1004520382078E5755C8275A0829085FEE2DE
:0F58D1006008744EF074200258DE7446F0A3F0A5
:1058E000121DEC74CD021E0F75F004A4C5F02583C3
:0F58F000F58378FC755C8575A085E5F093F2086B
:0F58FF0005F0B800F6021DEC4F4D4E4930312038
:0F590E002030322020303320203034202030351C
:10591D0020203036202030372020303820203039DC
:10592D0020203130202031312020313220203133E0
:10593D002020313420203135202031362020432DB8
:10594D00322043232D32442D322044232D32452D38
:10595D003220462D322046232D32472D322047232B
:10596D002D32412D322041232D32422D3220432D17
:10597D00312043232D31442D312044232D31452D0C
:10598D003120462D312046232D31472D31204723FF
:0E599D002D31412D312041232D31422D31205D
:0E59AB0043302020432330204430202044236A
:0F59B90030204530202046302020462330204724
:1059C80030202047233020413020204123302042FE
:1059D80030202043312020432331204431202044EB
